:020000040800F2
:10000000D806002031020008293300082B330008ED
:100010002D3300082F3300083133000800000000A2
:100020000000000000000000000000003333000862
:100030003533000800000000373300083B33000868
:100040004B0200084B0200084B0200084B0200085C
:100050004B0200084B0200084B0200084B0200084C
:100060004B0200084B0200084B0200084B0200083C
:100070004B0200084B0200084B0200084B0200082C
:100080004B0200084B0200084B0200084B0200081C
:100090004B0200084B0200084B0200084B0200080C
:1000A0004B0200084B0200084B0200084B020008FC
:1000B0004B0200084B0200084B0200084B020008EC
:1000C0004B0200084B0200084B0200084B020008DC
:1000D0004B0200084B0200084B0200084B020008CC
:1000E0004B0200084B0200084B0200084B020008BC
:1000F0004B0200084B0200084B0200084B020008AC
:100100004B0200084B0200084B0200084B0200089B
:100110004B0200084B0200084B0200084B0200088B
:100120004B0200084B0200084B0200084B0200087B
:100130004B0200084B0200084B0200084B0200086B
:100140004B0200084B0200084B0200084B0200085B
:100150004B0200084B0200084B0200084B0200084B
:100160004B0200084B0200084B0200084B0200083B
:100170004B0200084B0200084B0200084B0200082B
:100180004B0200084B02000800F002F800F040F8B3
:100190000AA090E8000C82448344AAF10107DA45E2
:1001A00001D100F035F8AFF2090EBAE80F0013F0F4
:1001B000010F18BFFB1A43F0010318479C3A0000D7
:1001C000BC3A0000103A24BF78C878C1FAD8520768
:1001D00024BF30C830C144BF04680C6070470000C1
:1001E0000023002400250026103A28BF78C1FBD840
:1001F000520728BF30C148BF0B6070471FB503F0DE
:1002000025FD9DE8030003F0D3F91FBD10B510BD17
:1002100003F02AFA1146FFF7F1FF03F003F803F0A9
:1002200048FA03B4FFF7F2FF03BC03F079FA0000C9
:100230000948804709480047FEE7FEE7FEE7FEE77A
:10024000FEE7FEE7FEE7FEE7FEE7FEE704480549B6
:10025000054A064B70470000E73300088901000893
:10026000D8000020D8060020D8020020D8020020A4
:10027000F848016841F001010160F64A00210832A6
:1002800011600268F44B1A400260031DF34A1A60C1
:10029000F04BF34A84331A60F04A103A1B1D1A607F
:1002A000026822F480220260EA480C300160181DC6
:1002B00001607047E7490022891C0A700870704786
:1002C00002460020510901290CD002290CD0E14935
:1002D0007431096802F01F02012393400B4200D0E1
:1002E00001207047DB49F4E7DA497031F1E718B5CE
:1002F00000204FF4A04400903120FFF7E1FF009967
:10030000491C0091A14201D00028F5D03120FFF70F
:10031000D7FF002800D0012018BDCE4A116821F077
:10032000F80141EAC00010607047CE49086070478C
:10033000C849002270310A700A70012802D00428CE
:1003400001D1052008707047C7490860704741EA2D
:1003500082115A0810B5C54B029C03EB02421143AF
:10036000014341EA0460BB49091D086010BDBD4955
:1003700008667047800140EA0170B6498431086020
:100380007047B84988667047800140EA0160B1490A
:1003900040EA0270883108607047B24908677047C8
:1003A000B049C8647047AB4B08331A68084322F061
:1003B000EC62104318607047A64B08331A68084374
:1003C00022F07842104318607047A24A0832116840
:1003D00021F003010143116070479E480830006816
:1003E00000F00C0070479B4A0832116821F0F001C0
:1003F000014311607047974A0832116821F4E051B7
:10040000014311607047934A0832116821F460413A
:1004100041EAC0001060704770B58E4B0833196810
:10042000934C11F00C0104D0924E042903D00829FA
:1004300003D004601BE0066019E0864A121D1168B3
:10044000C1F38055116801F03F0115B1B6FBF1F120
:1004500001E0B4FBF1F114681268C4F3881461433D
:10046000C2F30142521C5200B1FBF2F10160196863
:100470000F2202EA1111804A545C0168E140416098
:100480001C68072505EA9424145D21FA04F48460AD
:100490001B6805EA5333D25CD140C16070BDC0F324
:1004A0000121032908D16B4B08331968734A21F4E1
:1004B000F81102400A431A60664970310A68C0F3B5
:1004C0000B0002430A60704767494439086070476F
:1004D00065494039086070476249C1F85C0170475E
:1004E0005C4A8C32116821F440110143116070475D
:1004F000584A8C32116821F4400101431160704761
:10050000544A8C321168401E21F01F0101431160D2
:100510007047504A8C3211686FF0FF0321F4F85194
:1005200003EB00200843106070474A4A8C32116880
:1005300021F440310143116070475149C1F8E00195
:100540007047444A30320029116801D0014300E06D
:100550008143116070473F4A34320029116801D04D
:10056000014300E08143116070473A4A3832002964
:10057000116801D0014300E0814311607047354AA2
:1005800040320029116801D0014300E0814311602D
:100590007047304A44320029116801D0014300E01D
:1005A0008143116070472B4A10320029116801D035
:1005B000014300E0814311607047264A143200294C
:1005C000116801D0014300E0814311607047214A66
:1005D00018320029116801D0014300E08143116005
:1005E00070471C4A20320029116801D0014300E005
:1005F000814311607047174A24320029116801D0E5
:10060000014300E0814311607047124A50320029D3
:10061000116801D0014300E08143116070470D4A29
:1006200054320029116801D0014300E08143116078
:100630007047084A58320029116801D0014300E090
:10064000814311607047034A60320029116819D054
:10065000014318E000380240FFFFF6EA10300024A2
:100660000030002000004742800E47420000FFFF9C
:100670000024F40040787D0100000020FFFCFF0F03
:1006800000104742814311607047194A00291168E0
:1006900001D0014300E081431160704714490C31DF
:1006A0000128086803D020F008000860704740F077
:1006B0000800FAE70E4A573A0029117801D00143A1
:1006C00000E081431170704709481030016841F023
:1006D0008071016070470146054A0020583A12684F
:1006E0000A4200D00120704701495639087070470E
:1006F00064380240774910B5884206D10121084686
:10070000FFF751FF002101205BE07349884206D1C9
:1007100001210220FFF747FF0021022051E06F492D
:10072000884206D101210420FFF73DFF002104206B
:1007300047E06B49884206D101210820FFF733FFCB
:10074000002108203DE06749884206D101211020A0
:10075000FFF729FF0021102033E06349884206D1CA
:1007600001212020FFF71FFF0021202029E05F4901
:10077000884206D101214020FFF715FF00214020CB
:100780001FE05B49884206D101218020FFF70BFF63
:100790000021802015E05749884202D101218415AB
:1007A0000AE05549884202D10121441504E0534929
:1007B00088420AD1012104152046FFF7F4FE0021EA
:1007C0002046BDE81040FFF7EEBE10BDF0B5002298
:1007D00001274FF0030C0B6807FA02F52B40AB42E0
:1007E0002CD1066853000CFA03F4A64306600E7978
:1007F000D0F800E09E4046EA0E0606600E79012E13
:1008000001D0022E12D18668A64386604E79D0F8B8
:1008100008E09E4046EA0E0686604668AE434660A3
:1008200045688E799640B6B235434560C568A543A4
:10083000C560CC799C40C3681C43C460521C102A1C
:10084000C9D3F0BD4FF6FF71016000210171417104
:100850008171C171704708B541F480320092C26164
:10086000C1610099C161C169C069009008BD0246BB
:10087000002012690A4200D001207047006980B24E
:1008800070470246002052690A4200D0012070479A
:10089000406980B2704701837047418370470AB155
:1008A00001837047418370474161704742694A4004
:1008B000426170474B07DB0E9A40C90810B500EB48
:1008C0008100016A0F249C40A1430162016A114327
:1008D000016210BD00000240000402400008024016
:1008E000000C0240001002400014024000180240B8
:1008F000001C024000200240002402400028024068
:10090000C14910B5884202D10121841424E0BF49B5
:10091000884202D10121041404E0BD4988420AD171
:100920000121C4132046FFF75CFE2046BDE81040BD
:100930000021FFF756BEB749884202D10121441475
:100940000AE0B549884202D101210C0504E0B3490F
:1009500088420AD101214C052046FFF74CFE204673
:10096000BDE810400021FFF746BE10BD30B502883B
:100970004C8802F441530A88CD8822438C882C434A
:1009800022430C8922434C8922438C892243CC89FF
:1009900022431A430280828B22F400628283098AF6
:1009A000018230BDF0B502220023858B01244FF275
:1009B0004006354085830284868B8D68022D3DD0AC
:1009C0008A8802B10224964A13681B0203D5136871
:1009D00023F400031360924A7C3213681268C3F355
:1009E00088138F4FC2F302723F1F3D683F6805F0C6
:1009F0003F057F0201D58B4F00E08B4FB7FBF5F52C
:100A00005D43B5FBF2F2CB88B3F5007F2BD06301D9
:100A1000B2FBF3F202EB82028B685200B2FBF3F2FC
:100A2000521D92B20A23B2FBF3F202F00103D21A72
:100A30004FF6FF74C2F34F0204EA0323941EFE2C08
:100A400001D302220023CC881A43144304840A8869
:100A50004B881A438B8889890B431A43324342F4EB
:100A600000618183F0BD120AD4E70021018041803A
:100A70008180C180018141818181C1810721018201
:100A800070470021018041808180C1800222826004
:100A9000818170470029018802D041F0400101E0C6
:100AA00021F04001018070470029818B02D041F480
:100AB000806101E021F4806181837047028822F423
:100AC0000062028002880A4302807047B1F5804FBD
:100AD000018803D021F480410180704741F48041B6
:100AE000FAE7A1F57E420188FF3A02D041F4807115
:100AF00001E021F48071018070470029818802D0D3
:100B000041F0040101E021F00401818070470029D7
:100B1000818802D041F0100101E021F010018180B4
:100B2000704730B5828B00234FF24004224082830D
:100B300002220284848B0A884FF48075B2F5007F0C
:100B400000D002B92B464A888D8889892A431943E7
:100B50000A43224342F40061818330BD808970479B
:100B6000818170470029018802D041F4005101E0E1
:100B700021F4005101807047018841F480510180C7
:100B80007047012901D0008B7047808A7047008A26
:100B90007047002A828801D00A4300E08A4382809D
:100BA0007047090901238B40002A828899B201D03D
:100BB0000A4300E08A43828070470246002012897F
:100BC0000A4200D001207047C9430181704730B507
:100BD00001F00F030125024605FA03F40020A3B239
:100BE000090905FA01F49188A4B2128921401A4238
:100BF00002D0002900D0012030BD01F00F020121F8
:100C00009140C943018170470030014000380040E5
:100C1000003C0040003401400050014000540140BD
:100C20000838024040787D010024F400FE4910B5E8
:100C3000884206D101210846FFF7DDFC0021012092
:100C40005BE0B0F1804F09D0F84988420DD1012115
:100C50000220FFF7C6FC0021022070E001210846B7
:100C6000FFF7BFFC0021012069E0F149884206D16D
:100C700001210420FFF7B5FC002104205FE0ED49CD
:100C8000884206D101210820FFF7ABFC0021082093
:100C900055E0E949884206D101211020FFF7A1FC67
:100CA000002110204BE0E549884206D10121202097
:100CB000FFF797FC0021202041E0E149884206D15E
:100CC00001210220FFF797FC0021022015E0DD49F9
:100CD000884202D101210C040AE0DB49884202D19A
:100CE00001214C0404E0D94988420AD101218C0435
:100CF0002046FFF780FC00212046BDE81040FFF7AA
:100D00007ABCD349884206D101214020FFF769FC13
:100D10000021402013E0CF49884206D101218020E4
:100D2000FFF75FFC0021802009E0CB4988420AD10F
:100D3000841501212046FFF754FC00212046BDE820
:100D40001040FFF74EBC10BD30B50288B64CBC4D0C
:100D5000A0420DD0A8420BD0B0F1804F08D0B34BC9
:100D6000984205D0B24B984202D0B24B984203D180
:100D700022F070034A881A43AF4B984206D0AF4B1B
:100D8000984203D022F440730A891A4302804A68C9
:100D9000C2620A880285A04201D0A84201D1897AA4
:100DA00001860121818230BD4FF0FF314160002179
:100DB0000180018141808172704701858282704784
:100DC000028822F070020A43028070474162704735
:100DD000C1627047406A7047008D704700290188E2
:100DE00002D041F0020101E021F0020101807047D0
:100DF0000029018802D041F0040101E021F0040142
:100E0000018070470029018802D041F0800101E093
:100E100021F0800101807047028822F008020280E0
:100E200002880A4302807047028822F440720280DE
:100E300002880A43028070470029018802D041F0ED
:100E4000010101E021F001010180704730B5028C01
:100E500022F001020284028C8388048B22F00202B9
:100E600024F073050C882C438D8915434A882A4346
:100E70006D4DA84202D0724DA8420DD122F0080556
:100E8000CA8923F440732A4322F004058A882A433E
:100E90000D8A1D434B8A2B438380048389684163F9
:100EA000028430BD70B5028C22F010020284028CE4
:100EB0008388048B0D8824F4E6464FF6FF7404EA19
:100EC000052535438E8922F0200204EA06161643D2
:100ED0004A8804EA02123243534EB04202D0584EBE
:100EE000B04215D122F08006CA8923F4406304EA97
:100EF0000212324322F040068A8804EA0212324388
:100F00000E8A04EA86061E434B8A04EA83033343AF
:100F10008380058389688163028470BD70B5028C0B
:100F200022F480720284028C8388848B0D8824F0E2
:100F3000730425438E894FF6FF7422F4007204EA8D
:100F4000062616434A8804EA02223243364EB0424D
:100F500002D03B4EB04215D122F40066CA8923F478
:100F6000405304EA0222324322F480668A8804EA6B
:100F7000022232430E8A04EA06161E434B8A04EA12
:100F800003133343838085838968C163028470BD02
:100F900070B5028C22F480520284058C8288838B87
:100FA0000C8823F4E6464FF6FF7303EA0424344327
:100FB00025F400568D8903EA053535434E8803EA4A
:100FC00006362E43184DA84202D01D4DA84205D129
:100FD00022F480450A8A03EA82122A4382808483AB
:100FE00089680164068470BD002101804180818090
:100FF00081608181C18101824182704730B50124C5
:10100000058C00F118038C40A543058431B30829F1
:101010002CD0091FC1F34E001844016848F6FF7335
:101020001940016001681AE000000140000400401E
:1010300000080040000C0040001000400014004078
:1010400000040140004001400044014000480140CC
:1010500000180040001C00400020004006E04FF651
:10106000FF7303EA02221143016030BD03EB51001C
:1010700001684FF68F73194001600168F3E741631F
:10108000704781637047C163704701647047028B8A
:1010900022F070020A4302837047028B4FF6FF73FF
:1010A00022F4E04203EA0121114301837047828B5D
:1010B00022F070020A4382837047828B4FF6FF73DF
:1010C00022F4E04203EA0121114381837047028B3D
:1010D00022F008020A4302837047028B4FF6FF7327
:1010E00022F4006203EA0121114301837047828BDD
:1010F00022F008020A4382837047828B4FF6FF7307
:1011000022F4006203EA0121114381837047028BBC
:1011100022F004020A4302837047028B4FF6FF73EA
:1011200022F4806203EA0121114301837047828B1C
:1011300022F004020A4382837047828B4FF6FF73CA
:1011400022F4806203EA0121114381837047028BFC
:1011500022F080020A4302837047028B4FF6FF732E
:10116000C2F30E0203EA0121114301837047828B0F
:1011700022F080020A4382837047828B4FF6FF730E
:10118000C2F30E0203EA0121114381837047028CEE
:1011900022F002020A4302847047028C22F0080205
:1011A0000A4302847047028C4FF6FF7322F020023C
:1011B00003EA0111114301847047028C4FF6FF735B
:1011C00022F0800203EA0111114301847047028C6E
:1011D0004FF6FF7322F4007203EA012111430184E8
:1011E0007047028C4FF6FF7322F4006203EA01217C
:1011F000114301847047028C4FF6FF7322F40052B2
:1012000003EA013111430184704710B50123048CB6
:101210008B409C430484038C8A401343038410BD99
:1012200010B50423048C8B409C430484038C8A40B7
:101230001343038410BD828B22F440628283828B2D
:101240004FF6FF7303EA01210A4382837047828BC2
:1012500022F00C028283828B0A4382837047028BC6
:1012600022F440620283028B4FF6FF7303EA0121EE
:101270000A4302837047F0B5048C24F01004048400
:10128000078B068C4FF6FF7404EA011527F47347A9
:1012900004EA0331394304EA02220A4326F0A0019A
:1012A000294341F0100102830184F0BD028B22F03A
:1012B0000C020283028B0A43028370472DE9F0413E
:1012C0000C460E884988A288238905460EB3042E51
:1012D00026D0082E2E8C4FF6FF7028D026F480568C
:1012E0002E84AF8B2E8C00EA022200EA013127F413
:1012F00073473A4300EA0330104326F420420A437E
:1013000042F48051A8832984E1882846BDE8F04151
:1013100091E700F062F9E1882846BDE8F041C5E7B1
:10132000FFF7A9FFE1882846BDE8F04197E726F4DA
:1013300080762E84AF8B2E8C00EA012100EA031008
:10134000104327F0F307384326F420620A4342F49F
:101350008071A8832984E1882846BDE8F04176E7BA
:1013600000210180418001228280C180018170477B
:101370002DE9F0410C46002649880746012501B9B0
:101380000226A288012A00D102252088238900286C
:10139000384610D0FFF76FFFE1883846FFF75FFF50
:1013A00023892A463146384600F017F9E188384645
:1013B000BDE8F0417AE700F010F9E1883846FFF720
:1013C00075FF23892A4631463846FFF754FFE188E6
:1013D0003846BDE8F04142E7406B7047806B70478C
:1013E000C06B7047006C704710B50A884B88CC887A
:1013F0001A438B8823431A430B891A434B898989E3
:101400001A430A43A0F8442010BD00210180418006
:101410008180C1800181418181817047002930F83C
:10142000441F02D041F4004101E0C1F30E010180EC
:1014300070470029818802D041F0040101E021F0C9
:101440000401818070470029818802D041F00101A8
:1014500001E021F0010181807047002A828901D0DA
:101460000A4300E08A4382817047818270470246C6
:101470000020128A0A4200D001207047C94301822D
:10148000704702460020138A92890B4202EA010249
:1014900002D0002A00D001207047C9430182704762
:1014A0001143A0F848107047002A828901D00A43EE
:1014B00000E08A43828170470029818802D041F090
:1014C000080101E021F0080181807047018921F0C5
:1014D000070101817047028922F070020A430281EC
:1014E000704700B50346FFF7F6FF188940F0070084
:1014F000188100BD70B516460D46602904464FF0B0
:10150000010231460AD000F068F829462046FFF76C
:10151000E2FF208940F00700208170BDFFF7ABFE9D
:10152000F3E730B504894FF6FF7505EA032313434B
:10153000E4B20B432343038130BD10B50446FFF7EB
:10154000F0FF208940F07700208110BD10B50446DF
:10155000FFF7E7FF208940F48040208110BD82889A
:1015600022F07002828082880A438280704702895A
:1015700022F00702028102890A4302817047028930
:1015800022F08002028102890A430281704770B50D
:101590000589048B068C25F007050D434FF6FC41A9
:1015A0000C4040F201110C434FF6FF7101EA0311A8
:1015B00026F022061143314305810483018470BD66
:1015C0000029818802D041F0800101E021F08001F2
:1015D00081807047A0F85010704770B5048C24F0DB
:1015E00001040484058B048C4FF6FF7606EA03138E
:1015F000134325F0F3052B4324F00A020A4342F07B
:1016000001010383018470BD70B55A484168491CCB
:101610004160816811B18168491E8160AFF300802B
:101620000024554E18E006EB8405686890B1017BF4
:1016300081B1826872B1521E826069680AD14869BC
:10164000096988476868016881606868416809B904
:1016500000210173641CE4B23078A042E3D870BD6D
:10166000464801684FF47A70B1FBF0F0401EB0F1CB
:10167000807F12D24FF0E0225061414BF02083F87E
:10168000140D00209061072010613E48B1FBF0F17D
:101690003848C160012101707047FEE73548007885
:1016A000002805D04FF0E020016941F002010161FE
:1016B00070474FF0E020016921F00201016170479D
:1016C0002DE9F0472C4C0546DDF8209020781E4689
:1016D00017468846052802D30020BDE8F087182069
:1016E00001F0F0FE0028F8D00560C0E9018507731D
:1016F000C0E90469217804EB810148602178491C24
:101700002170EAE71C4B30B400211A7806E003EBA5
:1017100081046468844203D0491CC9B28A42F6D865
:101720008A4218D003EB81004068EFF3108472B650
:1017300005E003EB8102491C9568C9B255601A782F
:10174000521E8A42F5DC1978491E197004B962B636
:1017500030BC01F0E6BE30BC704700210173704719
:1017600001210173704701688160704741607047D3
:101770000160704710000020480000203400002065
:101780000FE000E0C0C62D001CB500200321CDE90C
:10179000000103464FF4704401222146184800F02E
:1017A000A1FD17481A3004801CBD1CB50021022081
:1017B000CDE900010B460A460121124800F092FDD6
:1017C0001CBD10480069C1070F4805D0017829B930
:1017D0000121017008467047002101700020704708
:1017E00008480069C107084803D0012101700020A2
:1017F000704701780029FAD000210170012070475C
:10180000000C0240000002402000002070471CB580
:1018100030B1032803D10521FE48FFF7F7FF1CBDB7
:1018200005210320CDE9000100231A464FF4E041D1
:10183000F94800F068FD1CBD7CB50525F74E032472
:1018400040B101280CD0032803D10521F448FFF74B
:10185000DDFF7CBD00231A464FF4607130460CE07A
:1018600000231A464FF400613046CDE9004500F0F0
:101870004AFD0023EB481A46C021CDE9004500F09F
:1018800042FD7CBD1CB50522E74C032140B1012877
:101890000CD0032803D10521E448FFF7B7FF1CBD96
:1018A000CDE9001200231A46642105E0CDE90012BB
:1018B00000231A464FF4E041204600F024FD1CBDF1
:1018C0001CB50622032140B101280DD0032803D105
:1018D0000621D748FFF79AFF1CBDCDE9001200236F
:1018E0001A463821D34806E0CDE9001200231A46F3
:1018F0004FF4E051D04800F006FD1CBD7CB5052535
:10190000CC4E032450B1012816D002281AD0032847
:1019100003D10521C948FFF779FF7CBD00231A4692
:101920004FF480613046CDE9004500F0ECFC002327
:101930001A460C21C04809E000231A464FF46041C2
:10194000304603E00023BE481A460D21CDE900458C
:1019500000F0D9FC7CBD1CB50522032140B1012853
:101960000DD0032803D10521B648FFF74FFF1CBD5A
:10197000CDE9001200231A46E021B34805E0CDE985
:10198000001200231A463821AA4800F0BCFC1CBDF6
:101990002DE9FF4F85B00446DDE912BA9946164697
:1019A0006846FFF762F8A748A84F0025844208D18F
:1019B000386840F4805038600698FFF7CCFFADF8E7
:1019C00004509E48DFF884828442A8F104080AD1BA
:1019D000D8F8001041F48041C8F800100698FFF7CD
:1019E0008DFFADF80450924884420AD1D8F8001017
:1019F00041F40041C8F800100698FFF761FFADF808
:101A000004508A48844208D1386840F40050386055
:101A10000698FFF737FFADF804508148844208D19B
:101A2000386840F4801038600698FFF705FFADF87D
:101A300004507848844208D1386840F40010386077
:101A40000698FFF7E4FEADF80450ADF80C90ADF841
:101A500000504FF40070ADF80EA0ADF802B0ADF834
:101A60000A0046B10121012E08D00220022E08D022
:101A7000032E0BD00EE0ADF8065004E0ADF8065092
:101A800006E0ADF80600ADF8085003E0ADF806003A
:101A9000ADF80810208820F04000208069462046DC
:101AA000FEF764FF208840F04000208009B0BDE8C8
:101AB000F08F2DE9FC410446624800250F464FF4A3
:101AC0008276844205D1CDE9006520230022FFF70C
:101AD0005FFF5A48844206D1CDE9006520230022E9
:101AE0003946FFF755FF5248844206D1CDE90065DB
:101AF000202300223946FFF74BFF4C48844206D191
:101B0000CDE90065202300223946FFF741FF444814
:101B1000844206D1CDE90065202300223946FFF733
:101B200037FF3C48844206D1CDE9006520230022DE
:101B30003946FFF72DFFBDE8FC812DE9FC41044645
:101B400040480025174688464FF48276844204D1E7
:101B5000CDE900652023FFF71BFF3848844206D1FA
:101B6000CDE9006520233A464146FFF711FF304892
:101B7000844206D1CDE9006520233A464146FFF76D
:101B800007FF2A48844206D1CDE9006520233A4662
:101B90004146FFF7FDFE2248844206D1CDE90065AB
:101BA00020233A464146FFF7F3FE1A488442C2D149
:101BB000CDE9006520233A464146FFF7E9FEBAE742
:101BC0002DE9FC470446DDE90A651E481F4690469C
:101BD0008946844205D1CDE9006513463A46FFF7B0
:101BE000D7FE1648844206D1CDE9006543463A4601
:101BF0004946FFF7CDFE0E48844206D1CDE9006587
:101C000043463A464946FFF7C3FE0848844225D179
:101C100043461DE0005401400018024000140240F9
:101C200000500140001C02400010024000340140FE
:101C3000003C004000040240000802400038004020
:101C400000200240003001400000024044380240C1
:101C5000CDE900653A464946FFF79AFE7748844247
:101C600006D1CDE9006543463A464946FFF790FE66
:101C70007348844206D1CDE9006543463A46494659
:101C8000FFF786FEBDE8FC877FB50D00044620D037
:101C90006846FEF7C1FB6B48844208D06A4884421C
:101CA00005D06648844202D06548844201D1039938
:101CB00000E0029900200124421C04FA02F3B1FB67
:101CC000F3F3AB4202D8C00004B070BDD0B2082814
:101CD000F2D33820F8E702880388C2F3C02223F049
:101CE000400303800129018808D021F400610180AC
:101CF000018841F0400101801046704741F40061C5
:101D0000F5E730B50488640614D50489A407FCD02F
:101D100004892406F9D400240AE00D5D8581058933
:101D2000AD07FCD005892D06F9D485891555641CAD
:101D30009C42F2D330BD10B503885B0613D50389EE
:101D40009B07FCD003891B06F9D4002309E0CC5C77
:101D500084810489A407FCD004892406F9D48489E9
:101D60005B1C9342F3D310BD30B50488640613D5D1
:101D70000489A407FCD004892406F9D4002409E0CE
:101D800082810589AD07FCD005892D06F9D48589A6
:101D90000D55641C9C42F3D330BD30B504886406F5
:101DA00016D50489A407FCD004892406F9D400249C
:101DB0000CE031F8145085810589AD07FCD0058908
:101DC0002D06F9D4858922F81450641C9C42F0D366
:101DD00030BD10B503885B0614D503899B07FCD082
:101DE00003891B06F9D400230AE031F813408481EB
:101DF0000489A407FCD004892406F9D484895B1CD7
:101E00009342F2D310BD30B50488640614D504891A
:101E1000A407FCD004892406F9D400240AE08281B6
:101E20000589AD07FCD005892D06F9D4858921F8EF
:101E30001450641C9C42F2D330BD0000005001409D
:101E40000054014000300140003401400288520635
:101E500001D40020704702899207FCD00289120643
:101E6000F9D4818101898907FCD001890906F9D457
:101E70008089C0B270472DE9F041E84E082514462C
:101E80008046758341F08001012A01D941F040016B
:101E9000E34F3846FFF7DAFF234600224146384633
:101EA000FFF762FF3583BDE8F0812DE9FC41DD4F8E
:101EB000787800281AD10021D948FFF7FAFD0121CE
:101EC0001020FEF73EFB01248DF8044000208DF821
:101ED0000600D24E08258DF8074000958DF8054084
:101EE00069463046FEF772FC35837C70BDE8FC81A4
:101EF000CD48401EFDD2704708B5FFF7F9FFFFF748
:101F0000D4FF01220F216846FFF7B5FF9DF80000BE
:101F1000C4493B2803D03F2804D0002008BD01203D
:101F2000087008BD0220087008BD2DE9F041BB4EC5
:101F30000825144680467583012A05D9B9480078DA
:101F4000012801D141F04001B54F3846FFF77EFF2F
:101F5000224641463846FFF7EEFE3583A3E738B503
:101F6000B04A672420B3012825D0022827D00328AF
:101F700029D004281BD19FEDAD0A82ED010A39B1A9
:101F8000012924D0022925D0032910D144F440444A
:101F90008DF80040012220216846FFF7C6FF200A85
:101FA0008DF80000012224216846FFF7BEFF38BDEE
:101FB0009FED9F0AE1E76F249FED9E0ADDE77724FE
:101FC0009FED9D0AD9E77F249FED9C0AD5E744F455
:101FD0008044DDE744F40044DAE738B50C460546B2
:101FE000012221216846FFF746FFBDF800000122CB
:101FF00040F04000ADF8000021216846FFF795FF52
:102000004720ADF800008748052D2CD0062D29D19A
:102010006721ADF800109FED8A0A012280ED010AC8
:1020200020216846FFF781FF012221216846FFF742
:102030007CFFBDF80000042C00F0D00040F02C0024
:10204000ADF8000009D0052C10D0062C11D0072CBB
:1020500008D140F00300ADF80000012221216846BC
:10206000FFF763FF38BDB3EE020AD6E740F0010088
:10207000F1E740F00200EEE770B50C460546FFF7C9
:1020800014FFFFF735FFFFF737FF012807D0FFF7F1
:1020900033FF022809D063490020087070BD214633
:1020A0002846FFF79AFF012070BD21462846FFF71A
:1020B00056FF022070BD7CB50546012228216846E6
:1020C000FFF7D9FE6C4601222921601CFFF7D3FEE1
:1020D00001222A21A01CFFF7CEFE01222B21E01CA9
:1020E000FFF7C9FE01222C21201DFFF7C4FE0122AB
:1020F0002D21601DFFF7BFFE9DF900009DF8011026
:1021000000EB012000B200EE100A4648B8EEC00A0B
:10211000D0ED010A20EE200ABDEEC00A10EE101A22
:1021200029809DF902109DF80320D0ED010A01EBF2
:10213000022109B200EE101AB8EEC00A20EE200A01
:10214000BDEEC00A10EE101A69809DF904109DF8CA
:102150000520D0ED010A01EB022109B200EE101AB0
:10216000B8EEC00A20EE200ABDEEC00A10EE100A3A
:10217000A8807CBD38B50446012229216846FFF7B6
:102180007AFE6D4601222B21681CFFF774FE0122A6
:102190002D21A81CFFF76FFE9DF90000214900EEDC
:1021A000100AD1ED010AB8EEC00A20EE200ABDEEF9
:1021B000C00A10EE100A20809DF90120D1ED010A1D
:1021C00000EE102A4042B8EEC00A20EE200ABDEE12
:1021D000C00A10EE102A62809DF90220D1ED010A9A
:1021E00000EE102AB8EEC00A20EE200ABDEEC00AAA
:1021F00010EE101AA180208038BD0A4910B5097868
:10220000012903D0022905D0002010BDFFF7B2FF3D
:10221000012010BDFFF74FFF022010BD001002404B
:10222000003001402400002040420F0048E13A3FC6
:102230008FC2753D8FC2F53DEC51383E8FC2753E61
:1022400000009042A3490844C0F38F2070472DE955
:10225000F04F9A46DDE909B889460346FFF7F2FFD9
:10226000C5B200204FF0030E0121814011EA090F91
:1022700028D0994E36F815400C4326F81540DF68F3
:1022800044000EFA04F6B7430BFA04FC47EA0C07C5
:10229000DF601F6802FA04FCB74347EA0C071F60BF
:1022A000012A01D0022A0DD15F6889B28F430AFA50
:1022B00000F189B20F435F60996808FA04F4B143F2
:1022C00021439960401CC0B21028CDD3BDE8F08FE7
:1022D00000B5FFF7B7FF0121814080480268114334
:1022E000016000BDFCB51646DDE907C50C000746D8
:1022F00008D0FFF7EDFFCDE900C53246214638464C
:10230000FFF7A5FFFCBD2DE9FC4F9946DDE90BB7B2
:1023100092460D00064622D0FFF7DAFF0022012187
:102320004FF00F0C01FA02F028420DD0D00806EB56
:102330008003186A5407E40E0CFA04F820EA080037
:1023400007FA04F420431862521C102AEAD3CDE99C
:10235000009B5346022229463046FFF778FFBDE82E
:10236000FC8FF0B50E460546FFF76CFF00225A4978
:10237000C4B24FF0010C03270CFA02F333420CD025
:1023800028684FEA420E07FA0EFE40EA0E00286067
:1023900031F81400984321F81400521CD2B2102ACC
:1023A000EAD3F0BDF0B500220125032605FA02F3B9
:1023B0000B4205D00468570006FA07F39C430460FB
:1023C000521CD2B2102AF1D3F0BDF0B50022012781
:1023D000032607FA02F33C460B4208D00568530077
:1023E00006FA03FC25EA0C059C4025430560521CB7
:1023F000D2B2102AEDD3F0BDF0B50022012503269C
:1024000005FA02F30B4205D00468570006FA07F3F9
:102410001C430460521CD2B2102AF1D3F0BDF0B5B7
:10242000002201260324022706FA02F30B4209D0F8
:102430000568530004FA03FC25EA0C0507FA03F3C8
:102440001D430560521CD2B2102AEDD3F0BDF0B589
:1024500000230127032507FA03F40C4209D0C668BC
:102460005C0005FA04FC26EA0C0602FA04F4264392
:10247000C6605B1CDBB2102BEDD3F0BD41F48032A3
:10248000C261C161C261C169C0697047002102E0D7
:10249000491C89B240080128FAD80846704700B59F
:1024A000FFF7D0FE012181400C4802688A43026098
:1024B00000BD00B5FFF7C6FE074931F8100000BDAA
:1024C00000B5FFF7BFFE044931F81000C04380B2E9
:1024D00000BD00000000FEBF600000203038024058
:1024E0002DE9F0410F46044601461D4616469FED74
:1024F0002C0B384600F0E4F928B92A46314620462C
:1025000000F07FFD10B10120BDE8F08144F8287F84
:10251000002026716571F7E7B5EEC00A10B5F1EE3F
:1025200010FA04D310EE101A1F4A914201DD012067
:1025300010BDDFED1E0A9FED1E2A60EE201A81EE0F
:10254000821A71EE200AFCEEE00A10EE901A8AB2AE
:10255000828680ED0C0A90F82C1000F049FE0020D5
:1025600010BD10B5A1F57A72B2F57A7F01D90120BC
:1025700010BD00EE102ADFED0E0A9FED0C1AB8EE2A
:10258000C00A81860A4660EE200A80EE810A80ED4C
:102590000C0A90F82C30194600F02AFE002010BDDD
:1025A00000000000000049400000344300007A446D
:1025B000000034437FB504460D466846FDF72CFF06
:1025C0004FF6FF70A860B4F1804F02D0AC498C4246
:1025D00005D1039828604FF0FF30686028E0A949D2
:1025E0008C420BD0A8498C4208D0A8498C4205D017
:1025F000A7498C4202D0A7498C4201D1019915E02C
:10260000A5498C4211D0A5498C420ED0A4498C42D8
:102610000BD0A4498C4208D0A3498C4205D0A349D1
:102620008C4202D0A2498C4205D10399C5E9001021
:10263000002004B070BD0220FBE72DE9F0470446FE
:102640002DED028BB0EE408AF0EE608A0025006826
:1026500001F059FA53EC182B01F068FA07D2256102
:10266000E56003206561BDEC028BBDE8F0879FED5E
:10267000910B51EC180B53EC102B01F0DBF903D14B
:102680002561E560656124E06068B0F5803F01D2B6
:10269000401C60602561D4E901862768A946761C44
:1026A0006D1CB7FBF5F001F02EFA53EC182B01F07E
:1026B00069F801F0FBF9C4E90305404501D9B542C9
:1026C000EED9B54207D9C4F81090C4F80C90C4F8FC
:1026D00014900420C7E751EC180B01F0E7F9606192
:1026E0000020C0E76749754A884203D1116841F06C
:1026F000010111607149091FB0F1804F55D0664B3F
:10270000984203D10B6843F002030B60634B98427D
:1027100003D10B6843F004030B60594B984203D17B
:102720000B6843F008030B605D4B984203D10B68C4
:1027300043F010030B605B4B984203D10B6843F0EE
:1027400020030B60504B984203D1136843F00203FF
:1027500013604E4B984203D1136843F480331360E7
:102760004B4B984203D1136843F400331360494B39
:10277000984203D1136843F4802313604A4A90427D
:1027800003D10A6842F040020A60484A904203D1ED
:102790000A6842F080020A60454A904203D1086804
:1027A00040F48070086000207047086840F0010025
:1027B000F8E73449414A884203D1116821F0010108
:1027C00011603E49091FB0F1804F55D0324B9842FD
:1027D00003D10B6823F002030B60304B984203D106
:1027E0000B6823F004030B60254B984203D10B6860
:1027F00023F008030B602A4B984203D10B6823F0A7
:1028000010030B60274B984203D10B6823F0200381
:102810000B601D4B984203D1136823F00203136031
:102820001A4B984203D1136823F480331360184B7A
:10283000984203D1136823F400331360154B984278
:1028400003D1136823F480231360174A904203D105
:102850000A6822F040020A60144A904203D10A68D2
:1028600022F080020A60124A904203D1086820F4E4
:102870008070086000207047086820F00100F8E7C9
:10288000000C0040000001400004014000400140F5
:10289000004401400048014000040040000800409E
:1028A000001000400014004000180040001C0040D0
:1028B00000200040000000000000000044380240FA
:1028C00070B504462DED028B8AB0FC48B0EE408A0C
:1028D000F0EE608A0D46844202D0F948844204D169
:1028E00004200AB0BDEC028B70BD694620462C6006
:1028F000FFF760FE009801F006F953EC182B01F089
:1029000015F954D39FEDEF0B51EC180B53EC102B32
:1029100001F090F801D10220E3E7B0EE480AF0EEB2
:10292000680A6846FFF789FE0398E8B351EC180B74
:1029300001F0BCF853EC182B9FEDE40BE86051EC70
:10294000100B00F01FFF01F0B1F8286103986860D8
:102950000498A8602046FFF7C5FE04980026401E94
:10296000ADF818000398ADF82060401E0790ADF850
:102970001A608DF8226006A92046FEF7E5F90121CC
:102980002046FEF73FFAD348844202D0D248844220
:1029900003D101212046FEF741FD208840F00100CF
:1029A000208085F8246000E001E0002099E7012004
:1029B00097E71CB502004FF0060001D005201CBDB2
:1029C0000923032259B10129F9D1CDE900230023BC
:1029D0001A464902C148FFF796FC00201CBDCDE90C
:1029E000002300231A468021BD48F4E71CB50200ED
:1029F0004FF0060001D005201CBD0923032259B168
:102A00000129F9D1CDE9002300231A460902B34870
:102A1000FFF779FC00201CBDCDE9002300231A46F6
:102A20000221AF48F4E77CB50200AE4CAE4D4FF04A
:102A300006004FF009064FF0030303D0012A15D01A
:102A400005207CBD39B10129FBD1CDE90036002339
:102A50001A46402112E0CDE9003600231A464FF411
:102A6000804113E0FFF74FFC00207CBD41B10129FC
:102A7000FBD1CDE9003600231A4649022846F1E78A
:102A8000CDE9003600231A464FF400412046E9E71D
:102A90001CB502004FF0060001D005201CBD03222A
:102AA00059B10129FAD10092002301921A468021DE
:102AB0008A48FFF728FC00201CBD009200230192E9
:102AC0001A464FF400718748F3E71CB502004FF037
:102AD000060001D005201CBD032259B10129FAD1FD
:102AE0000092002301921A4640217C48FFF70BFC1C
:102AF00000201CBD0092002301921A464FF4807101
:102B00007848F3E77CB50200754C784D4FF006002D
:102B10004FF0030303D0012A14D005207CBD39B146
:102B20000129FBD10093019300231A46202111E0D3
:102B30000093019300231A46042112E0FFF7E3FB00
:102B400000207CBD41B10129FBD1009301930023FA
:102B50001A4640212846F1E70093019300231A46C4
:102B600008212046EAE77CB50200614C614D4FF038
:102B700006004FF0030308D0012A19D0A615022A37
:102B800025D0032A32D005207CBD39B10129FBD1E3
:102B90000093019300231A4620212FE00093019314
:102BA00000231A46402131E0FFF7ADFB00207CBD39
:102BB00039B10129FBD10093019300231A4640212A
:102BC0001CE00093019300231A4680211EE039B1D6
:102BD0000129ECD10093019300231A4680210DE0D6
:102BE0000093019300231A4631460FE041B10129B9
:102BF000DDD10093019300231A4631462846D3E7DE
:102C00000093019300231A464FF400712046CBE74E
:102C10007CB50200324D344E4FF006004FF00203F7
:102C20004FF0030407D0012A18D0022A25D0032A26
:102C300033D005207CBD39B10129FBD1CDE900435A
:102C400000231A46890220E0CDE9004300231A46FA
:102C5000012130E0FFF757FB00207CBD39B101298D
:102C6000FBD1CDE9004300231A46C9020DE0CDE9AE
:102C7000004300231A4602211DE041B10129ECD195
:102C8000CDE9004300231A4609033046E2E7CDE9C7
:102C9000004300231A4604210DE039B10129DCD19B
:102CA000CDE9004300231A461248D3E7CDE900439B
:102CB00000231A4608212846CCE7000000100040F7
:102CC00000140040000000000000000000000000B0
:102CD00080842E41000001400004014000140240A5
:102CE0000000024000040240001C024000100240AC
:102CF00000080240002002407CB502004FF00600B0
:102D00004FF002034FF00304FD4DFE4E07D0012AA1
:102D100018D0022A25D0032A33D005207CBD39B132
:102D20000129FBD1CDE9004300231A46090330E015
:102D3000CDE9004300231A46402132E0FFF7E3FAD1
:102D400000207CBD39B10129FBD1CDE9004300232E
:102D50001A4649031DE0CDE9004300231A468021AD
:102D60001FE039B10129ECD1CDE9004300231A4617
:102D700089030EE0CDE9004300231A464FF4807129
:102D80000FE041B10129DCD1CDE9004300231A460F
:102D9000C9033046D2E7CDE9004300231A464FF479
:102DA00000712846CAE72DE9FC410400D64FD44DF6
:102DB000D64E4FF006004FF002024FF0030308D04A
:102DC000012C21D0022C37D0032C44D00520BDE8A3
:102DD000FC8149B101290DD00229F8D1CDE9003299
:102DE00000231A4649023EE0CDE9003200231A468C
:102DF000402119E0CDE9003200231A46102139E0C4
:102E0000FFF781FA0020E2E749B101290ED002293B
:102E1000DDD1CDE9003200231A46802123E0CDE93F
:102E2000003200231A4680213846E9E7CDE9003216
:102E300000231A4620211DE039B10129C7D1CDE96F
:102E4000003200231A4609020DE0CDE900320023CA
:102E50001A4601210EE041B10129B8D1CDE9003275
:102E600000231A4649023046CAE7CDE90032002362
:102E70001A4602212846C3E77CB50200A24D4FF056
:102E800006004FF001034FF0030408D09C4E012AC6
:102E900020D0022A2DD0032A3AD005207CBD49B18A
:102EA00001290DD00229F9D1CDE9004300231A46AA
:102EB00089033CE0CDE9004300231A46012136E0B6
:102EC000CDE9004300231A46202130E0FFF71BFA2A
:102ED00000207CBD39B10129FBD1CDE9004300239D
:102EE0001A4608211CE0CDE9004300231A460221BE
:102EF0001DE039B10129ECD1CDE9004300231A4688
:102F000089020DE0CDE9004300231A4604210EE0BA
:102F100041B10129DDD1CDE9004300231A46C902A0
:102F20003046D3E7CDE9004300231A46082128465E
:102F3000CCE72DE9FC418C460200734D744E4FF0F6
:102F400006004FF001034FF003044FF4007108D066
:102F50004F00012A1BD0022A2AD0032A3BD0052089
:102F600035E7BCF1000F07D0BCF1010FF8D1CDE976
:102F7000004300231A463AE0CDE9004300231A46F5
:102F80004FF480713BE0FFF7BEF900201FE7BCF172
:102F9000000F08D0BCF1010FE2D1CDE900430023BE
:102FA0001A46394623E0CDE9004300231A4626E0BD
:102FB000BCF1000F09D0BCF1010FD1D1CDE9004324
:102FC00000231A464FF4005111E0CDE900430023DD
:102FD0001A46394613E0BCF1000F0AD0BCF1010FCC
:102FE000BED1CDE9004300231A464FF4804130465C
:102FF000C9E7CDE9004300231A464FF40061284693
:10300000C1E70B4600684349884202D11146184681
:103010008FE7B0F1804F05D03F49884205D1114676
:103020001846C0E61146184626E73C49884202D1B8
:103030001146184660E63A49884202D111461846C0
:10304000E6E53849884202D1114618468BE53649F3
:10305000884202D11146184654E53449884202D1CB
:103060001146184631E53249884202D111461846C8
:103070000EE53049884202D111461846D3E42E4964
:10308000884202D111461846B0E42C49884202D148
:10309000114618468DE40420704730B50446406858
:1030A000154685B0A84202D8032005B030BD702077
:1030B0000222ADF80000ADF80C20012004EB8102E3
:1030C0000295ADF8020055610A1E00FA01F0C0B287
:1030D00006D0012937D0022947D0032A68D156E00B
:1030E00094F8241001420AD1014384F8241069465F
:1030F0002068FDF7ABFE08212068FDF7E8FF1FE020
:1031000000040240000C024000000240000802409F
:103110000010024000000140000400400008004090
:10312000000C004000040140004001400044014008
:103130000048014000180040001C004000200040F2
:103140002068456334E094F8241001420AD1014319
:1031500084F8241069462068FDF7A4FE0821206841
:10316000FDF7BBFF2068856322E094F8241001423C
:103170000AD1014384F8241069462068FDF7CEFE89
:1031800008212068FDF7B3FF2068C56310E094F8BC
:10319000241001420AD1014384F8241069462068B2
:1031A000FDF7F6FE08212068FDF7A7FF20680564FB
:1031B00000207AE710EE102A144B9A4201DD426893
:1031C00005E0B5EEC00AF1EE10FA01D8002264E77E
:1031D0004268521E00EE902A6423F8EE600A20EE48
:1031E000800ABCEEC00A10EE102AB2FBF3F2EEE742
:1031F00030B40369934202D230BC03207047446864
:10320000641E5443B4FBF3F230BC46E70000C842EE
:1032100010B5401A029CE41A6043511A90FBF1F079
:10322000184410BD9EB000F0DEF8FEF719FAFEF764
:10323000ABFAFEF761FE364C012807D0FEF75CFEC4
:10324000022809D04FF470402080FEE74FF4A040E0
:1032500020800421052004E04FF42040208000213C
:103260000846FEF709FF02225407012321460FA852
:10327000FFF736F901231A46214601A8FFF730F976
:103280009FED240A0FA8FFF747F99FED230A01A835
:10329000FFF742F942F2107000F033F89FED1F0A79
:1032A00001A8FFF739F94FF47A7000F02AF81C4CA6
:1032B00072274FF480656E424FF06E081848FEF793
:1032C0009CFF0097B4F900005A232A463146FFF7C5
:1032D0009FFF00EE100A01A8B8EEC00AFFF71CF924
:1032E000CDF80080B4F9020046232A463146FFF7A4
:1032F0008FFF00EE100A0FA8B8EEC00AFFF70CF916
:10330000DCE7084909684843401EFDD270470000C9
:10331000180C02400000DC42000000000000C8421F
:103320002C0000201C0000207047FEE7FEE7FEE7AF
:10333000FEE7704770477047704710B5FEF764F9B5
:1033400010BD00000CB5002254490092019208689B
:1033500040F4803008604FF4A043086800F4003067
:1033600001900098401C0090019810B90098984274
:10337000F3D10868800334D50120019047484030DC
:10338000026842F0805202604548026842F44042BE
:1033900002604248083002680260026842F400425B
:1033A0000260026842F4A0520260031F3D4A1A60A4
:1033B0000A6842F080720A600A689201FCD53A49B4
:1033C00040F205720A60016821F0030101600168A2
:1033D00041F0020101600168C1F381010229FAD1C3
:1033E0000CBD01920CBD314810B5016841F470016B
:1033F00001602A48016841F001010160274A00216B
:103400000832116002682A4B1A400260031D294AE3
:103410001A60026822F48022026020480C300160A9
:10342000FFF790FF21494FF000608039086010BD20
:1034300070B51A4D083528681F4B204910F00C0054
:1034400004D01F4E042803D0082803D00B601BE0D3
:103450000E6019E0114A121D1068C0F38054106804
:1034600000F03F0014B1B6FBF0F001E0B3FBF0F068
:1034700013681268C3F388135843C2F30142521C05
:103480005200B0FBF2F0086028680C4AC0F3031049
:10349000121D105C0A68C2400A6070BD003802400C
:1034A0000070004008544007003C024088ED00E0F6
:1034B000FFFFF6FE103000240024F400340000204A
:1034C00040787D0170B5064600F056F8056806F1B3
:1034D0000B0020F00704B4429CBF002070BD2B46B7
:1034E0006A68BAB11068A04210D304F1080188429A
:1034F0003CBF5068586007D351681019416011688B
:10350000091B016058601460101D70BD134652689D
:10351000002AE7D12146284600F036F80028DED1FF
:1035200070BD70B50446051F00F026F80068002C39
:1035300014BF446870BD002C18BFAC423CBF20468D
:103540006468F8D301680A18AA4218BF456003D11D
:103550002A6805461144016028684119A1421CBF30
:103560006C6070BD6168696021680844286070BD46
:103570007047704770470000004870478000002087
:10358000704770477047704738B504460A460020B8
:103590006946AFF30080002808BF38BD0246009995
:1035A000204600F03FF8012038BD012000F054B85B
:1035B000F8B5AFF30080054600200C46102000BF90
:1035C0000646A819A0420DD9324669460020AFF33D
:1035D0000080070008BF00F03FF80098A04218BF25
:1035E0000546C419FFF7C8FF05600746F01D20F027
:1035F00007004619284600F00AF8B44208BFF8BD93
:10360000A21B31463868BDE8F84000F00BB8002135
:103610000160C0E9011070471020704700487047F2
:1036200078000020034640688C46002818BF884276
:103630003CBF03464068F8D318681844884207D056
:103640000CF1030020F00700001D411A521A014638
:10365000081D0A60FFF765BF10B500F039F8BDE836
:10366000104000F02FB870477546FFF7D7FFAE4601
:1036700005006946534620F00700854618B020B57E
:10368000FCF7E4FDBDE820404FF000064FF00007D6
:103690004FF000084FF0000B21F00701AC46ACE8FA
:1036A000C009ACE8C009ACE8C009ACE8C0098D4667
:1036B000704710B50446AFF300802046BDE81040C7
:1036C000FCF7AFBD002801D000F02AB87047000019
:1036D00010B5012805D0002103A000F027F8012033
:1036E00010BD09A1F8E7000053494752544D454D1C
:1036F0003A204F7574206F662068656170206D6593
:103700006D6F7279000000003A2048656170206D8D
:10371000656D6F727920636F727275707465640085
:1037200001491820ABBEFEE72600020070B5054631
:103730000C460A2000E06D1C00F011F835B1287825
:103740000028F8D102E0641C00F009F814B12078D8
:103750000028F8D1BDE870400A20AFF3008008B51A
:1037600069468DF800000320ABBE08BD491058BF64
:10377000C1F140415B1058BFC3F140438B42EFF3AE
:10378000008070472DE9C04130B4DFF8A0C23CEAA8
:10379000111418BF3CEA131400F0EC8081EA030511
:1037A0001CEA111444EAD57418BF1CEA131500F082
:1037B000C780A4EB05044FF0004545EAC12145EA66
:1037C000C32341EA505143EA525304F17F749942B2
:1037D00004F500344FEAC0204FEAC22208BF9042ED
:1037E00000F09C804FEA13650FF24016765D4FEAB9
:1037F000134506FB05F7C7F1807706FB07F74FEA8D
:10380000D737A7FB03687642C8F58038A7FB06CEFA
:1038100038BFA8F1010807FB08E64FF0000EA6FB31
:10382000028CE6FB03CEDCF1000CCEF1004E38BF7B
:10383000AEF1010EA6FB0C584FF000074FF000054B
:10384000E6FB0E87A1FB08C6A0FB07CE16EB0E0613
:1038500045F10005E1FB076515F1E04E7EBFA4F5DB
:1038600080345FEA46066D4116F1800745F1000598
:103870004FEA17274FEA066647EA0567A6F1DE46D4
:10388000B6F1805F4FEA15251FD9384624F0010CA8
:1038900005EBC471BCF1FE6F01EB0C1102D8F0BC5A
:1038A000BDE8008124425CBF01F5801E9EEAC47F12
:1038B00002D4F0BCBDE80081244238D4F0BCA1F1B0
:1038C000C041BDE8004100F0BBB94FEAD22242EA54
:1038D00043524FEAD323A7FB02864FEAD02040EAA7
:1038E000415007FB03661EEA0E0F4FEAD12105FB8C
:1038F000026658BFA6EB0056B6EB00564FEA520ED2
:103900004EEAC37E18EB0E0E56EB530EBDD518EBE8
:1039100002085E417F1C55F10005B6E74FF48015A3
:103920004FF000074FF000064FF00008ADE7F0BC85
:103930004FF0000001F1C04101F00041BDE80081FD
:1039400011EA0C1F0CEA131500D00CE013EA0C1F4F
:1039500000F025804FF00000F0BC81EA030101F087
:103960000041BDE80081F0BCBDE8004181EA0301EF
:1039700000F066B9F0BCBDE8004170B500F012F986
:10398000097EFC3E00F007B881EA03014FF0000019
:1039900001F00041704781EA030100F051B9F0BC29
:1039A000BDE800414FF0000021497047FFFDFBF9E1
:1039B000F7F5F4F2F0EEEDEBE9E8E6E4E3E1E0DE62
:1039C000DDDBDAD8D7D5D4D3D1D0CFCDCCCBCAC8D4
:1039D000C7C6C5C4C2C1C0BFBEBDBCBBBAB9B8B7FB
:1039E000B6B5B4B3B2B1B0AFAEADACABAAA9A8A8EE
:1039F000A7A6A5A4A3A3A2A1A09F9F9E9D9C9C9BBC
:103A00009A99999897979695959493939291919066
:103A10008F8F8E8E8D8C8C8B8B8A898988888787F7
:103A20008685858484838382828181800000FF076C
:103A30000000F87F51EA030C17D41CF5801F58BF13
:103A4000BCF5801F00F10680994218BF704708BF7F
:103A50009042704707D711F5801F58BF13F5801F9C
:103A600019D499427047894270471CF5801F08D5C8
:103A7000BCF5801FF7D58B4218BF704708BF824244
:103A800070474FF4001C1CEB410F38BF1CEB430F79
:103A900001D28B42704770B500F084F8922449003F
:103AA0004FF000514FF08053FFF760BE4FEA1153C3
:103AB000A3F58063D3F11E03A8BFD3F1200C08DB6C
:103AC0004FF0004242EAC12252EA505232FA03F069
:103AD000704709420BD4102BC4BF0020704703F578
:103AE000787CBCF1FF3F05D04FF0FF3070474FF0BE
:103AF0000000704770B500F055F800BF499224806F
:103B000000207047F0E7B0FA80F310FA03F10AD012
:103B1000C3F11D0303F580634FEA41504FEA03529E
:103B200002EBD12170474FF00000704751EA030CBF
:103B300017D41CF5801F58BFBCF5801F00F106800C
:103B4000994218BF704708BF9042704707D711F5D8
:103B5000801F58BF13F5801F19D4994270478942BE
:103B600070471CF5801F08D5BCF5801FF7D58B4228
:103B700018BF704708BF824270474FF4001C1CEB0F
:103B8000410F38BF1CEB430F01D28B42704770B519
:103B900000F008F8922449004FF000514FF0805394
:103BA000FFF7E4BD0EF1020E2EF0030E5EF8046B7B
:103BB000364205D4012A43EB030515F5001F12D840
:103BC000012841EB010C1CF5001F0CD80ED14FEA67
:103BD000D17C15F5001F0CEB4C0C0CF1020C08BF4E
:103BE0004CEBD37C04E04FF0080C01E04FEAD37CAF
:103BF0000CEB4C0526FA05F606F00706B6F1040CA8
:103C000006D20EEB860CBDE870404CF0010C60470C
:103C1000DFE80CF0090B02024FF000414FF000000A
:103C2000A1F5002170BD19461046012851EB010491
:103C300018BFD4F5001484BF002001F0004170BD0E
:103C40000808A0F500114FEA310170474FF04070AD
:103C5000E1EE100A70470000783C000800000020E8
:103C600048000000C4010008C03C000848000020D3
:103C700090060000E00100080000000001020304BB
:103C8000010203040607080900000000000000000C
:103C90000000000000000000000000000000000024
:103CA000000000000000000000000000007A030A8D
:103CB00000000000000000000102030406070809DC
:040000050800018965
:00000001FF
